{
  "_format": "hh-sol-artifact-1",
  "contractName": "ZKAirdropVerifier",
  "sourceName": "contracts/ZKAirdropVerifier.sol",
  "abi": [
    {
      "inputs": [
        {
          "internalType": "contract UniversalVerifier",
          "name": "verifier_",
          "type": "address"
        },
        {
          "internalType": "string",
          "name": "name_",
          "type": "string"
        },
        {
          "internalType": "string",
          "name": "symbol_",
          "type": "string"
        }
      ],
      "stateMutability": "nonpayable",
      "type": "constructor"
    },
    {
      "inputs": [
        {
          "internalType": "address",
          "name": "spender",
          "type": "address"
        },
        {
          "internalType": "uint256",
          "name": "allowance",
          "type": "uint256"
        },
        {
          "internalType": "uint256",
          "name": "needed",
          "type": "uint256"
        }
      ],
      "name": "ERC20InsufficientAllowance",
      "type": "error"
    },
    {
      "inputs": [
        {
          "internalType": "address",
          "name": "sender",
          "type": "address"
        },
        {
          "internalType": "uint256",
          "name": "balance",
          "type": "uint256"
        },
        {
          "internalType": "uint256",
          "name": "needed",
          "type": "uint256"
        }
      ],
      "name": "ERC20InsufficientBalance",
      "type": "error"
    },
    {
      "inputs": [
        {
          "internalType": "address",
          "name": "approver",
          "type": "address"
        }
      ],
      "name": "ERC20InvalidApprover",
      "type": "error"
    },
    {
      "inputs": [
        {
          "internalType": "address",
          "name": "receiver",
          "type": "address"
        }
      ],
      "name": "ERC20InvalidReceiver",
      "type": "error"
    },
    {
      "inputs": [
        {
          "internalType": "address",
          "name": "sender",
          "type": "address"
        }
      ],
      "name": "ERC20InvalidSender",
      "type": "error"
    },
    {
      "inputs": [
        {
          "internalType": "address",
          "name": "spender",
          "type": "address"
        }
      ],
      "name": "ERC20InvalidSpender",
      "type": "error"
    },
    {
      "anonymous": false,
      "inputs": [
        {
          "indexed": true,
          "internalType": "address",
          "name": "owner",
          "type": "address"
        },
        {
          "indexed": true,
          "internalType": "address",
          "name": "spender",
          "type": "address"
        },
        {
          "indexed": false,
          "internalType": "uint256",
          "name": "value",
          "type": "uint256"
        }
      ],
      "name": "Approval",
      "type": "event"
    },
    {
      "anonymous": false,
      "inputs": [
        {
          "indexed": true,
          "internalType": "address",
          "name": "from",
          "type": "address"
        },
        {
          "indexed": true,
          "internalType": "address",
          "name": "to",
          "type": "address"
        },
        {
          "indexed": false,
          "internalType": "uint256",
          "name": "value",
          "type": "uint256"
        }
      ],
      "name": "Transfer",
      "type": "event"
    },
    {
      "inputs": [],
      "name": "REQUEST_ID",
      "outputs": [
        {
          "internalType": "uint64",
          "name": "",
          "type": "uint64"
        }
      ],
      "stateMutability": "view",
      "type": "function"
    },
    {
      "inputs": [],
      "name": "TOKEN_AMOUNT_FOR_AIRDROP_PER_ID",
      "outputs": [
        {
          "internalType": "uint256",
          "name": "",
          "type": "uint256"
        }
      ],
      "stateMutability": "view",
      "type": "function"
    },
    {
      "inputs": [
        {
          "internalType": "address",
          "name": "owner",
          "type": "address"
        },
        {
          "internalType": "address",
          "name": "spender",
          "type": "address"
        }
      ],
      "name": "allowance",
      "outputs": [
        {
          "internalType": "uint256",
          "name": "",
          "type": "uint256"
        }
      ],
      "stateMutability": "view",
      "type": "function"
    },
    {
      "inputs": [
        {
          "internalType": "address",
          "name": "spender",
          "type": "address"
        },
        {
          "internalType": "uint256",
          "name": "value",
          "type": "uint256"
        }
      ],
      "name": "approve",
      "outputs": [
        {
          "internalType": "bool",
          "name": "",
          "type": "bool"
        }
      ],
      "stateMutability": "nonpayable",
      "type": "function"
    },
    {
      "inputs": [
        {
          "internalType": "address",
          "name": "account",
          "type": "address"
        }
      ],
      "name": "balanceOf",
      "outputs": [
        {
          "internalType": "uint256",
          "name": "",
          "type": "uint256"
        }
      ],
      "stateMutability": "view",
      "type": "function"
    },
    {
      "inputs": [],
      "name": "decimals",
      "outputs": [
        {
          "internalType": "uint8",
          "name": "",
          "type": "uint8"
        }
      ],
      "stateMutability": "view",
      "type": "function"
    },
    {
      "inputs": [
        {
          "internalType": "address",
          "name": "_to",
          "type": "address"
        }
      ],
      "name": "mint",
      "outputs": [],
      "stateMutability": "nonpayable",
      "type": "function"
    },
    {
      "inputs": [],
      "name": "name",
      "outputs": [
        {
          "internalType": "string",
          "name": "",
          "type": "string"
        }
      ],
      "stateMutability": "view",
      "type": "function"
    },
    {
      "inputs": [],
      "name": "symbol",
      "outputs": [
        {
          "internalType": "string",
          "name": "",
          "type": "string"
        }
      ],
      "stateMutability": "view",
      "type": "function"
    },
    {
      "inputs": [],
      "name": "totalSupply",
      "outputs": [
        {
          "internalType": "uint256",
          "name": "",
          "type": "uint256"
        }
      ],
      "stateMutability": "view",
      "type": "function"
    },
    {
      "inputs": [
        {
          "internalType": "address",
          "name": "to",
          "type": "address"
        },
        {
          "internalType": "uint256",
          "name": "value",
          "type": "uint256"
        }
      ],
      "name": "transfer",
      "outputs": [
        {
          "internalType": "bool",
          "name": "",
          "type": "bool"
        }
      ],
      "stateMutability": "nonpayable",
      "type": "function"
    },
    {
      "inputs": [
        {
          "internalType": "address",
          "name": "from",
          "type": "address"
        },
        {
          "internalType": "address",
          "name": "to",
          "type": "address"
        },
        {
          "internalType": "uint256",
          "name": "value",
          "type": "uint256"
        }
      ],
      "name": "transferFrom",
      "outputs": [
        {
          "internalType": "bool",
          "name": "",
          "type": "bool"
        }
      ],
      "stateMutability": "nonpayable",
      "type": "function"
    },
    {
      "inputs": [],
      "name": "verifier",
      "outputs": [
        {
          "internalType": "contract UniversalVerifier",
          "name": "",
          "type": "address"
        }
      ],
      "stateMutability": "view",
      "type": "function"
    }
  ],
  "bytecode": "0x608060405262000014620000db60201b60201c565b60ff16600a62000025919062000271565b6005620000339190620002c2565b6006553480156200004357600080fd5b5060405162001eaa38038062001eaa833981810160405281019062000069919062000519565b818181600390816200007c9190620007f4565b5080600490816200008e9190620007f4565b50505082600560006101000a81548173ffffffffffffffffffffffffffffffffffffffff021916908373ffffffffffffffffffffffffffffffffffffffff160217905550505050620008db565b60006012905090565b7f4e487b7100000000000000000000000000000000000000000000000000000000600052601160045260246000fd5b60008160011c9050919050565b6000808291508390505b600185111562000172578086048111156200014a5762000149620000e4565b5b60018516156200015a5780820291505b80810290506200016a8562000113565b94506200012a565b94509492505050565b6000826200018d576001905062000260565b816200019d576000905062000260565b8160018114620001b65760028114620001c157620001f7565b600191505062000260565b60ff841115620001d657620001d5620000e4565b5b8360020a915084821115620001f057620001ef620000e4565b5b5062000260565b5060208310610133831016604e8410600b8410161715620002315782820a9050838111156200022b576200022a620000e4565b5b62000260565b62000240848484600162000120565b925090508184048111156200025a5762000259620000e4565b5b81810290505b9392505050565b6000819050919050565b60006200027e8262000267565b91506200028b8362000267565b9250620002ba7fffffffffffffffffffffffffffffffffffffffffffffffffffffffffffffffff84846200017b565b905092915050565b6000620002cf8262000267565b9150620002dc8362000267565b9250828202620002ec8162000267565b91508282048414831517620003065762000305620000e4565b5b5092915050565b6000604051905090565b600080fd5b600080fd5b600073ffffffffffffffffffffffffffffffffffffffff82169050919050565b60006200034e8262000321565b9050919050565b6000620003628262000341565b9050919050565b620003748162000355565b81146200038057600080fd5b50565b600081519050620003948162000369565b92915050565b600080fd5b600080fd5b6000601f19601f8301169050919050565b7f4e487b7100000000000000000000000000000000000000000000000000000000600052604160045260246000fd5b620003ef82620003a4565b810181811067ffffffffffffffff82111715620004115762000410620003b5565b5b80604052505050565b6000620004266200030d565b9050620004348282620003e4565b919050565b600067ffffffffffffffff821115620004575762000456620003b5565b5b6200046282620003a4565b9050602081019050919050565b60005b838110156200048f57808201518184015260208101905062000472565b60008484015250505050565b6000620004b2620004ac8462000439565b6200041a565b905082815260208101848484011115620004d157620004d06200039f565b5b620004de8482856200046f565b509392505050565b600082601f830112620004fe57620004fd6200039a565b5b8151620005108482602086016200049b565b91505092915050565b60008060006060848603121562000535576200053462000317565b5b6000620005458682870162000383565b935050602084015167ffffffffffffffff8111156200056957620005686200031c565b5b6200057786828701620004e6565b925050604084015167ffffffffffffffff8111156200059b576200059a6200031c565b5b620005a986828701620004e6565b9150509250925092565b600081519050919050565b7f4e487b7100000000000000000000000000000000000000000000000000000000600052602260045260246000fd5b600060028204905060018216806200060657607f821691505b6020821081036200061c576200061b620005be565b5b50919050565b60008190508160005260206000209050919050565b60006020601f8301049050919050565b600082821b905092915050565b600060088302620006867fffffffffffffffffffffffffffffffffffffffffffffffffffffffffffffffff8262000647565b62000692868362000647565b95508019841693508086168417925050509392505050565b6000819050919050565b6000620006d5620006cf620006c98462000267565b620006aa565b62000267565b9050919050565b6000819050919050565b620006f183620006b4565b620007096200070082620006dc565b84845462000654565b825550505050565b600090565b6200072062000711565b6200072d818484620006e6565b505050565b5b8181101562000755576200074960008262000716565b60018101905062000733565b5050565b601f821115620007a4576200076e8162000622565b620007798462000637565b8101602085101562000789578190505b620007a1620007988562000637565b83018262000732565b50505b505050565b600082821c905092915050565b6000620007c960001984600802620007a9565b1980831691505092915050565b6000620007e48383620007b6565b9150826002028217905092915050565b620007ff82620005b3565b67ffffffffffffffff8111156200081b576200081a620003b5565b5b620008278254620005ed565b6200083482828562000759565b600060209050601f8311600181146200086c576000841562000857578287015190505b620008638582620007d6565b865550620008d3565b601f1984166200087c8662000622565b60005b82811015620008a6578489015182556001820191506020850194506020810190506200087f565b86831015620008c65784890151620008c2601f891682620007b6565b8355505b6001600288020188555050505b505050505050565b6115bf80620008eb6000396000f3fe608060405234801561001057600080fd5b50600436106100cf5760003560e01c80636a6278421161008c578063792c234811610066578063792c23481461021657806395d89b4114610234578063a9059cbb14610252578063dd62ed3e14610282576100cf565b80636a627842146101ac5780637042f36b146101c857806370a08231146101e6576100cf565b806306fdde03146100d4578063095ea7b3146100f257806318160ddd1461012257806323b872dd146101405780632b7ac3f314610170578063313ce5671461018e575b600080fd5b6100dc6102b2565b6040516100e99190610d8b565b60405180910390f35b61010c60048036038101906101079190610e55565b610344565b6040516101199190610eb0565b60405180910390f35b61012a610367565b6040516101379190610eda565b60405180910390f35b61015a60048036038101906101559190610ef5565b610371565b6040516101679190610eb0565b60405180910390f35b6101786103a0565b6040516101859190610fa7565b60405180910390f35b6101966103c6565b6040516101a39190610fde565b60405180910390f35b6101c660048036038101906101c19190610ff9565b6103cf565b005b6101d061044d565b6040516101dd9190610eda565b60405180910390f35b61020060048036038101906101fb9190610ff9565b610453565b60405161020d9190610eda565b60405180910390f35b61021e61049b565b60405161022b9190611049565b60405180910390f35b61023c6104a3565b6040516102499190610d8b565b60405180910390f35b61026c60048036038101906102679190610e55565b610535565b6040516102799190610eb0565b60405180910390f35b61029c60048036038101906102979190611064565b610558565b6040516102a99190610eda565b60405180910390f35b6060600380546102c1906110d3565b80601f01602080910402602001604051908101604052809291908181526020018280546102ed906110d3565b801561033a5780601f1061030f5761010080835404028352916020019161033a565b820191906000526020600020905b81548152906001019060200180831161031d57829003601f168201915b5050505050905090565b60008061034f6105df565b905061035c8185856105e7565b600191505092915050565b6000600254905090565b60008061037c6105df565b90506103898582856105f9565b61039485858561068d565b60019150509392505050565b600560009054906101000a900473ffffffffffffffffffffffffffffffffffffffff1681565b60006012905090565b600073ffffffffffffffffffffffffffffffffffffffff168173ffffffffffffffffffffffffffffffffffffffff160361043e576040517f08c379a000000000000000000000000000000000000000000000000000000000815260040161043590611150565b60405180910390fd5b61044a81600654610781565b50565b60065481565b60008060008373ffffffffffffffffffffffffffffffffffffffff1673ffffffffffffffffffffffffffffffffffffffff168152602001908152602001600020549050919050565b63665974a581565b6060600480546104b2906110d3565b80601f01602080910402602001604051908101604052809291908181526020018280546104de906110d3565b801561052b5780601f106105005761010080835404028352916020019161052b565b820191906000526020600020905b81548152906001019060200180831161050e57829003601f168201915b5050505050905090565b6000806105406105df565b905061054d81858561068d565b600191505092915050565b6000600160008473ffffffffffffffffffffffffffffffffffffffff1673ffffffffffffffffffffffffffffffffffffffff16815260200190815260200160002060008373ffffffffffffffffffffffffffffffffffffffff1673ffffffffffffffffffffffffffffffffffffffff16815260200190815260200160002054905092915050565b600033905090565b6105f48383836001610803565b505050565b60006106058484610558565b90507fffffffffffffffffffffffffffffffffffffffffffffffffffffffffffffffff81146106875781811015610677578281836040517ffb8f41b200000000000000000000000000000000000000000000000000000000815260040161066e9392919061117f565b60405180910390fd5b61068684848484036000610803565b5b50505050565b600073ffffffffffffffffffffffffffffffffffffffff168373ffffffffffffffffffffffffffffffffffffffff16036106ff5760006040517f96c6fd1e0000000000000000000000000000000000000000000000000000000081526004016106f691906111b6565b60405180910390fd5b600073ffffffffffffffffffffffffffffffffffffffff168273ffffffffffffffffffffffffffffffffffffffff16036107715760006040517fec442f0500000000000000000000000000000000000000000000000000000000815260040161076891906111b6565b60405180910390fd5b61077c8383836109da565b505050565b600073ffffffffffffffffffffffffffffffffffffffff168273ffffffffffffffffffffffffffffffffffffffff16036107f35760006040517fec442f050000000000000000000000000000000000000000000000000000000081526004016107ea91906111b6565b60405180910390fd5b6107ff600083836109da565b5050565b600073ffffffffffffffffffffffffffffffffffffffff168473ffffffffffffffffffffffffffffffffffffffff16036108755760006040517fe602df0500000000000000000000000000000000000000000000000000000000815260040161086c91906111b6565b60405180910390fd5b600073ffffffffffffffffffffffffffffffffffffffff168373ffffffffffffffffffffffffffffffffffffffff16036108e75760006040517f94280d620000000000000000000000000000000000000000000000000000000081526004016108de91906111b6565b60405180910390fd5b81600160008673ffffffffffffffffffffffffffffffffffffffff1673ffffffffffffffffffffffffffffffffffffffff16815260200190815260200160002060008573ffffffffffffffffffffffffffffffffffffffff1673ffffffffffffffffffffffffffffffffffffffff1681526020019081526020016000208190555080156109d4578273ffffffffffffffffffffffffffffffffffffffff168473ffffffffffffffffffffffffffffffffffffffff167f8c5be1e5ebec7d5bd14f71427d1e84f3dd0314c0f7b2291e5b200ac8c7c3b925846040516109cb9190610eda565b60405180910390a35b50505050565b81600560009054906101000a900473ffffffffffffffffffffffffffffffffffffffff1673ffffffffffffffffffffffffffffffffffffffff16638c1da2c98263665974a56040518363ffffffff1660e01b8152600401610a3c9291906111d1565b600060405180830381865afa158015610a59573d6000803e3d6000fd5b505050506040513d6000823e3d601f19601f82011682018060405250810190610a8291906113ff565b60000151610ac5576040517f08c379a0000000000000000000000000000000000000000000000000000000008152600401610abc90611506565b60405180910390fd5b610ad0848484610ad6565b50505050565b600073ffffffffffffffffffffffffffffffffffffffff168373ffffffffffffffffffffffffffffffffffffffff1603610b28578060026000828254610b1c9190611555565b92505081905550610bfb565b60008060008573ffffffffffffffffffffffffffffffffffffffff1673ffffffffffffffffffffffffffffffffffffffff16815260200190815260200160002054905081811015610bb4578381836040517fe450d38c000000000000000000000000000000000000000000000000000000008152600401610bab9392919061117f565b60405180910390fd5b8181036000808673ffffffffffffffffffffffffffffffffffffffff1673ffffffffffffffffffffffffffffffffffffffff16815260200190815260200160002081905550505b600073ffffffffffffffffffffffffffffffffffffffff168273ffffffffffffffffffffffffffffffffffffffff1603610c445780600260008282540392505081905550610c91565b806000808473ffffffffffffffffffffffffffffffffffffffff1673ffffffffffffffffffffffffffffffffffffffff168152602001908152602001600020600082825401925050819055505b8173ffffffffffffffffffffffffffffffffffffffff168373ffffffffffffffffffffffffffffffffffffffff167fddf252ad1be2c89b69c2b068fc378daa952ba7f163c4a11628f55a4df523b3ef83604051610cee9190610eda565b60405180910390a3505050565b600081519050919050565b600082825260208201905092915050565b60005b83811015610d35578082015181840152602081019050610d1a565b60008484015250505050565b6000601f19601f8301169050919050565b6000610d5d82610cfb565b610d678185610d06565b9350610d77818560208601610d17565b610d8081610d41565b840191505092915050565b60006020820190508181036000830152610da58184610d52565b905092915050565b6000604051905090565b600080fd5b600080fd5b600073ffffffffffffffffffffffffffffffffffffffff82169050919050565b6000610dec82610dc1565b9050919050565b610dfc81610de1565b8114610e0757600080fd5b50565b600081359050610e1981610df3565b92915050565b6000819050919050565b610e3281610e1f565b8114610e3d57600080fd5b50565b600081359050610e4f81610e29565b92915050565b60008060408385031215610e6c57610e6b610db7565b5b6000610e7a85828601610e0a565b9250506020610e8b85828601610e40565b9150509250929050565b60008115159050919050565b610eaa81610e95565b82525050565b6000602082019050610ec56000830184610ea1565b92915050565b610ed481610e1f565b82525050565b6000602082019050610eef6000830184610ecb565b92915050565b600080600060608486031215610f0e57610f0d610db7565b5b6000610f1c86828701610e0a565b9350506020610f2d86828701610e0a565b9250506040610f3e86828701610e40565b9150509250925092565b6000819050919050565b6000610f6d610f68610f6384610dc1565b610f48565b610dc1565b9050919050565b6000610f7f82610f52565b9050919050565b6000610f9182610f74565b9050919050565b610fa181610f86565b82525050565b6000602082019050610fbc6000830184610f98565b92915050565b600060ff82169050919050565b610fd881610fc2565b82525050565b6000602082019050610ff36000830184610fcf565b92915050565b60006020828403121561100f5761100e610db7565b5b600061101d84828501610e0a565b91505092915050565b600067ffffffffffffffff82169050919050565b61104381611026565b82525050565b600060208201905061105e600083018461103a565b92915050565b6000806040838503121561107b5761107a610db7565b5b600061108985828601610e0a565b925050602061109a85828601610e0a565b9150509250929050565b7f4e487b7100000000000000000000000000000000000000000000000000000000600052602260045260246000fd5b600060028204905060018216806110eb57607f821691505b6020821081036110fe576110fd6110a4565b5b50919050565b7f696e76616c696420616464726573730000000000000000000000000000000000600082015250565b600061113a600f83610d06565b915061114582611104565b602082019050919050565b600060208201905081810360008301526111698161112d565b9050919050565b61117981610de1565b82525050565b60006060820190506111946000830186611170565b6111a16020830185610ecb565b6111ae6040830184610ecb565b949350505050565b60006020820190506111cb6000830184611170565b92915050565b60006040820190506111e66000830185611170565b6111f3602083018461103a565b9392505050565b600080fd5b7f4e487b7100000000000000000000000000000000000000000000000000000000600052604160045260246000fd5b61123782610d41565b810181811067ffffffffffffffff82111715611256576112556111ff565b5b80604052505050565b6000611269610dad565b9050611275828261122e565b919050565b600080fd5b61128881610e95565b811461129357600080fd5b50565b6000815190506112a58161127f565b92915050565b600080fd5b600080fd5b600067ffffffffffffffff8211156112d0576112cf6111ff565b5b6112d982610d41565b9050602081019050919050565b60006112f96112f4846112b5565b61125f565b905082815260208101848484011115611315576113146112b0565b5b611320848285610d17565b509392505050565b600082601f83011261133d5761133c6112ab565b5b815161134d8482602086016112e6565b91505092915050565b60008151905061136581610e29565b92915050565b600060808284031215611381576113806111fa565b5b61138b608061125f565b9050600061139b84828501611296565b600083015250602082015167ffffffffffffffff8111156113bf576113be61127a565b5b6113cb84828501611328565b60208301525060406113df84828501611356565b60408301525060606113f384828501611356565b60608301525092915050565b60006020828403121561141557611414610db7565b5b600082015167ffffffffffffffff81111561143357611432610dbc565b5b61143f8482850161136b565b91505092915050565b7f6f6e6c79206964656e7469746965732077686f2070726f76696465642073696760008201527f206f72206d74702070726f6f6620666f72207472616e7366657220726571756560208201527f7374732061726520616c6c6f77656420746f207265636569766520746f6b656e60408201527f7300000000000000000000000000000000000000000000000000000000000000606082015250565b60006114f0606183610d06565b91506114fb82611448565b608082019050919050565b6000602082019050818103600083015261151f816114e3565b9050919050565b7f4e487b7100000000000000000000000000000000000000000000000000000000600052601160045260246000fd5b600061156082610e1f565b915061156b83610e1f565b925082820190508082111561158357611582611526565b5b9291505056fea2646970667358221220c4aa92965681f97dd7fc137a89df81833e3485c370fa8f222970069e425f083564736f6c63430008140033",
  "linkReferences": {},
  "deployedLinkReferences": {}
}